:100000000C942A000C943F000C943F000C943F0089
:100010000C943F000C943F000C943F000C943F0064
:100020000C943F000C943F000C943F000C943F0054
:100030000C943F000C943F000C943F000C943F0044
:100040000C943F000C943F000C943F000C943F0034
:100050000C943F0011241FBECFE5D4E0DEBFCDBF1E
:1000600010E0A0E6B0E0E8EBF8E002C005900D92E9
:10007000A63CB107D9F70E94F4010C945A040C94E1
:100080000000813019F580E00E94DF0161E088E125
:100090000E948B0360E089E10E948B030E94CC01E7
:1000A00060E080E00E94BA0180E690E00E94A10139
:1000B0002FEF8EE994E2215080409040E1F700C09C
:1000C000000060E088E10E948B030895811118C050
:1000D00084EB0E94DF0161E089E10E948B0360E014
:1000E00088E10E948B032FEF8EE994E2215080403B
:1000F0009040E1F700C0000060E089E10E948B03BE
:100100000895FF920F931F93CF93DF9310E00F2E6C
:10011000FEE2FF2EF02D27C000E1010F60E0802FEE
:100120000E948B03D0E018C0C4E1CD0F8C2F0E9439
:100130001204811110C0E12FF0E0EE0FFF1FEE0F4F
:10014000FF1FE859FF4FED0FF11DF0808C2F0E942B
:1001500012048823D9F3DF5FD43030F361E0802FBD
:100160000E948B031F5F1430B8F28F2DDF91CF9167
:100170001F910F91FF900895CF93C82F60E088E002
:100180000E948B0360E089E00E948B03C4FB66271A
:1001900060F984E00E948B03C5FB662760F985E067
:1001A0000E948B03C6FB662760F986E00E948B03E2
:1001B0006C2F661F6627661F87E00E948B0361E035
:1001C0008AE00E948B0389EF90E00197F1F700C06D
:1001D000000060E08AE00E948B0389EF90E00197C5
:1001E000F1F700C000006C2F617084E00E948B0367
:1001F000C1FB662760F985E00E948B03C2FB66277E
:1002000060F986E00E948B03C3FB662760F987E0F4
:100210000E948B0361E08AE00E948B0389EF90E0EB
:100220000197F1F700C0000060E08AE00E948B03B4
:1002300083EF91E00197F1F700C00000CF9108959E
:100240008BB361E00E944A0487E893E10197F1F7DC
:1002500000C0000082E00E94BC0088E20E94BC0056
:100260008CE00E94BC0081E00E94BC0086E00E94FD
:10027000BC0080E80E94BC000895CF93C82F61E0C5
:1002800088E00E948B0360E089E00E948B03C4FB3E
:10029000662760F984E00E948B03C5FB662760F93E
:1002A00085E00E948B03C6FB662760F986E00E940A
:1002B0008B036C2F661F6627661F87E00E948B03E7
:1002C00061E08AE00E948B0389EF90E00197F1F7EB
:1002D00000C0000060E08AE00E948B0389EF90E09C
:1002E0000197F1F700C000006C2F617084E00E945C
:1002F0008B03C1FB662760F985E00E948B03C2FB7C
:10030000662760F986E00E948B03C3FB662760F9CD
:1003100087E00E948B0361E08AE00E948B0389EFF3
:1003200090E00197F1F700C0000060E08AE00E94D1
:100330008B0389EF90E00197F1F700C00000CF91A7
:1003400008950F931F93CF938C01C0E009C00E94C2
:100350003D0189EF90E00197F1F700C00000CF5F09
:10036000F801EC0FF11D80818111F1CFCF911F9128
:100370000F910895882321F0613021F080E003C0BF
:1003800080E801C080EC603108F4860F0E94BC0058
:1003900008950E943D01089581E00E94BC0060E044
:1003A00080E00E94BA0108951DBC1CBC83EC99E05A
:1003B00097BD86BD82E88FBD8BE18EBD089581110A
:1003C00005C081E490E09BBD8ABD08958A3529F47B
:1003D0008FEA90E09BBD8ABD0895843B21F48CE2B6
:1003E00091E09BBD8ABD0895CF93DF9300D01F920B
:1003F000CDB7DEB70E949A020E9420010E94D4016C
:1004000081E3898382E38A8383E38B8360E080E0F6
:100410000E94BA0188E790E00E94A10100E0F12C5F
:100420000E948100182F8E32D9F30E94CC0160E027
:10043000802F0E94BA01812F0E94C9012FE788E313
:1004400091E0215080409040E1F700C000001A3256
:1004500031F580E00E94410060E089E10E948B0359
:100460000E94CC0160E080E00E94BA0188E890E040
:100470000E94A1012FEF8EE994E22150804090402C
:10048000E1F700C000000E94CC0160E080E00E9423
:10049000BA0188E790E00E94A10100E00FC0E1E00E
:1004A000F0E0EC0FFD1FE00FF11D8081181302C07A
:1004B0000F5F04C0181711F0F3940F5F033009F0B9
:1004C000AFCFFF2019F10E94CC0160E080E00E94D4
:1004D000BA0184E990E00E94A10180E00E944100FD
:1004E0002FEF83ED90E3215080409040E1F700C072
:1004F00000000E94CC0160E080E00E94BA0188E721
:1005000090E00E94A10100E0F12C8ACF033009F0B5
:1005100087CFF11085CF0E94CC0160E080E00E947F
:10052000BA018CE990E00E94A10181E00E944100A3
:1005300000E076CF80E0EBC0E82FF0E0EA55FF4F17
:100540009081282F269526952695382F3770913043
:1005500009F441C020F0923009F489C0D7C021309D
:1005600099F028F02230E9F0233041F1CFC09AB35E
:1005700041E050E0BA0102C0660F771F3A95E2F7FA
:100580009B01292B2ABBC2C097B341E050E0BA01BE
:1005900002C0660F771F3A95E2F79B01292B27BB14
:1005A000B5C094B341E050E0BA0102C0660F771FB6
:1005B0003A95E2F79B01292B24BBA8C091B341E0F7
:1005C00050E0BA0102C0660F771F3A95E2F79B012F
:1005D000292B21BB9BC02130B9F028F0223029F112
:1005E0002330A1F193C09AB341E050E0BA0102C0B8
:1005F000660F771F3A95E2F79B01209592239ABBED
:100600009BB329232BBB82C097B341E050E0BA01D2
:1006100002C0660F771F3A95E2F79B01209592235F
:1006200097BB98B3292328BB71C094B341E050E035
:10063000BA0102C0660F771F3A95E2F79B01209539
:10064000922394BB95B3292325BB60C091B341E0AD
:1006500050E0BA0102C0660F771F3A95E2F79B019E
:100660002095922391BB92B3292322BB4FC0213006
:10067000C1F028F0223039F12330B9F147C09AB3E4
:1006800041E050E0BA0102C0660F771F3A95E2F7E9
:100690009B01362F309593239ABB9BB3292B2BBB01
:1006A00035C097B341E050E0BA0102C0660F771F32
:1006B0003A95E2F79B01362F3095932397BB98B379
:1006C000292B28BB23C094B341E050E0BA0102C0FB
:1006D000660F771F3A95E2F79B01362F30959323EB
:1006E00094BB95B3292B25BB11C091B341E050E0D9
:1006F000BA0102C0660F771F3A95E2F79B01362FC9
:100700003095932391BB92B3292B22BB8F5F80320C
:1007100008F412CF0895982F969596959695877020
:10072000662309F43FC0613009F07BC0913099F035
:1007300028F09230E9F0933041F108954BB321E075
:1007400030E0B90102C0660F771F8A95E2F7CB014E
:10075000842B8BBB089548B321E030E0B90102C07F
:10076000660F771F8A95E2F7CB01842B88BB08952B
:1007700045B321E030E0B90102C0660F771F8A95CA
:10078000E2F7CB01842B85BB089542B321E030E032
:10079000B90102C0660F771F8A95E2F7CB01842B5F
:1007A00082BB08959130A1F028F09230F9F0933097
:1007B00059F108954BB321E030E0B90102C0660F52
:1007C000771F8A95E2F7CB01809584238BBB089530
:1007D00048B321E030E0B90102C0660F771F8A9567
:1007E000E2F7CB018095842388BB089545B321E0CF
:1007F00030E0B90102C0660F771F8A95E2F7CB019E
:100800008095842385BB089542B321E030E0B9018F
:1008100002C0660F771F8A95E2F7CB01809584238B
:1008200082BB0895982F969596959695482F477078
:10083000913081F028F09230B9F09330F9F028C06F
:1008400099B3892F90E002C0959587954A95E2F774
:100850008170089526B330E0C90102C0959587954F
:100860004A95E2F78170089523B330E0C90102C0D0
:10087000959587954A95E2F78170089520B330E009
:10088000C90102C0959587954A95E2F78170089550
:1008900080E00895813041F028F0823039F08330D3
:1008A00039F008956BBB089568BB089565BB089542
:0808B00062BB0895F894FFCF2C
:1008B80057656C636F6D65003738392F3435362AC4
:1008C8003132332D63303D2B456E74657220506193
:1008D8007373776F72643A00446F6F72204C6F6362
:1008E8006B6564002044656E69656400204163633C
:1008F80065707465640000000000000000000000DE
:1009080000000000000000000000020202020000D7
:06091800000000000000D9
:00000001FF
